:020000040800F2
:10000000F0FF012005670608A7810308A553030830
:100010007D6706087D6706087D670608000000000A
:10002000000000000000000000000000A58103089F
:10003000A381030800000000A1810308D98F0108F3
:100040007D6706087D6706087D6706087D670608E8
:100050007D6706087D6706080DAA010839AB01080F
:10006000FDAA0108C1AA010885AA0108E1DD00086E
:10007000D1DD0008C1DD0008B1DD00089DDD00080C
:1000800089DD000875DD00087D67060800000000B6
:1000900000000000000000000000000049AA010864
:1000A0003D760108297A01086D750108AD7B0108CC
:1000B00069790108A9780108DD770108F5010108CF
:1000C000FD010108E5010108ED0101087D67060851
:1000D0007D67060889910108D190010800000000A1
:1000E000D1A901087D670608D5CA030800000000F1
:1000F00000000000000000000000000061DD0008BA
:100100000000000071B900080D7701087D6706083E
:1001100000000000000000000000000000000000DF
:100120004DDD000839DD000825DD000811DD00087F
:10013000FDDC0008000000000000000000000000DE
:100140000000000000000000000000000DB90308DE
:10015000E9DC0008D5DC0008C1DC000819900108C2
:10016000D5010108DD0101080000000000000000C9
:10017000000000000000000000000000000000007F
:10018000000000007D67060800000000000000007D
:080190007D6706087D67060883
:080198009C620600010000005A
:1001A0001002010001000000FC2D0020F82D0020AD
:1001B00000000000C80900080B1201003C0000000C
:1001C000643200204038002000000000CC09000804
:1001D0000D12010014000000E03300207C380020E4
:1001E00000000000080A00082802040004000000C3
:1001F000EC3C0020F83D0020000000004DD3030837
:100200002702040004000000E83C0020FC3D002020
:100210000000000041D303081A0201003C00000066
:10022000A8380020003E0020000000002DD7030861
:10023000012001000C000000005400209861002003
:10024000000000001C0A00080A70010028000000DD
:1002500098520020A461002000000000895102088B
:100260000ED003009201000004510020CC61002058
:100270000000000085B00508010101000400000035
:1002800050500020606300200000000000000000CB
:1002900000010100040000004850002064630020B9
:1002A00000000000280A000802010100030000000D
:1002B000445000206863002000000000593F0408FB
:1002C000220201001C0100006C5E00206C63002013
:1002D000000000002DD803080C200600CC00000010
:1002E000E05200208864002000000000F53E040871
:1002F00001020100050000005C5000205465002050
:1003000000000000E5D60108000201000500000021
:10031000245700205C650020000000000000000061
:100320001B02010010000000F05600206465002050
:10033000000000002FD303081B1001000C00000078
:10034000C03F00207465002000000000ADD401080B
:1003500021020100F0000000443E002080650020E2
:100360000000000019E501082C0004001000000046
:100370002475002014750020000000007D5A02083A
:100380002B00120024000000587500203475002056
:10039000000000004D5A0208190201001000000080
:1003A000F47400207C7500200000000001D30308D5
:1003B0002920140078000000C47300208C750020F0
:1003C00000000000000000001C0202001C000000F1
:1003D000786B0020047600200000000061D503083F
:1003E00028100100160000002C700020207600204C
:1003F00000000000C15B02080412010002000000BE
:10040000BC71002038760020000000002C0A000893
:100410000F02010001000000B87100203C760020AE
:10042000000000002E0A0008140001000300000074
:10043000187000204076002000000000300A0008FC
:100440002700010004000000D47A0020587C00201E
:1004500000000000340A000838100100010000000C
:10046000F47800205C7C002000000000380A0008BE
:1004700005020100040000005C8800207088002054
:10048000000000003A0A0008030101000A00000011
:10049000C485002074880020000000000D7503084A
:1004A0000E02010002000000048600208088002067
:1004B000000000003E0A00081402010005000000D0
:1004C000088600208488002000000000400A000800
:1004D00013020100040000007C7C00208C880020B6
:1004E00000000000460A00081F020800100000007B
:1004F000DCAE0020CCAE002000000000D1D203080A
:100500000702010002000000D8D000207CD10020AA
:10051000000000004C0A0008F62101000C00000059
:10052000C0D0002080D1002000000000500A000848
:10053000020001000C000000B4D000208CD100208B
:10054000000000000000000039000100050000006C
:1005500094D0002098D1002000000000C1D20308F0
:10056000060203000C00000088D00020A0D100206B
:1005700000000000EFD503081D020100020000008A
:1005800030D00020ACD10020000000005C0A000840
:100590000A02010014000000B8DE0020CCE10020B7
:1005A000000000000995040803000100010000009C
:1005B000D0D60020E0E10020000000000000000094
:1005C000031201003D0000008CE10020E4E1002066
:1005D000000000005E0A000825201E002C0100001B
:1005E000F4DE002024E200200000000000000000F3
:1005F000101001000200000038D6002050E3002057
:10060000000000009C0A00082312010010000000F6
:1006100090EC00201CED002000000000A00A000863
:10062000051001000600000088EC00202CED0020E1
:1006300000000000B00A0008371001002E00000082
:10064000C8EC002034ED002000000000B60A0008CD
:10065000161001000600000080E6002064ED002076
:1006600000000000E40A00082F1001002200000032
:10067000F8EC00206CED002000000000EA0A000801
:100680001E0001000700000080E8002090ED00201F
:10069000000000000C0B0008231001000E000000F9
:1006A000C0E8002098ED002000000000E55102089D
:1006B000F5610100CC00000068E50020A8ED0020F5
:1006C0000000000035E40108261001000E000000C3
:1006D00084EE002074EE002000000000B50705083D
:1006E0000B3001001A0000004CE50020C0EE002095
:1006F00000000000140B00081F300100240000005F
:1007000024E50020DCEE002000000000300B000893
:100710000D000100340000004C200120E02A0120DF
:1007200000000000C9F502080902010001000000F4
:10073000B41F0120142B012000000000540B0008FE
:100740000400080080000000301F0120182B012049
:100750000000000000000000130001000400000081
:10076000881E0120982B012000000000580B000873
:10077000FD01010024000000481E01209C2B0120E7
:1007800000000000FB630108182001003000000099
:10079000141E0120C02B012000000000B5D7030863
:1007A000061001001C000000A4EF0020F02B012027
:1007B000000000004FD30308FB010100010000000E
:1007C000901C01200C2C01200000000013D3030812
:1007D000FC010100090000005C1B0120102C01201D
:1007E0000000000019D30308F70101000600000013
:1007F000301B01201C2C0120000000005C0B0008B5
:10080000F901010004000000201B0120242C01201C
:1008100000000000A9640108160215003F00000056
:1008200080F00020282C012000000000CFD2030817
:100830003400010010000000101A0120682C012073
:100840000000000041B0050811020100080000008E
:10085000E8190120782C012000000000620B00083C
:100860001212010004000000E0190120802C012078
:10087000000000006A0B00081220010010000000B8
:10088000D0190120842C0120000000006E0B00080C
:10089000FF1101000600000018140120942C012013
:1008A00000000000F1D20308081203000F0000004E
:1008B000941401209C2C012000000000C3D30308E5
:1008C000FA01010003000000E40D0120AC2C01201E
:1008D00000000000BD020108020201000300000048
:1008E00068EF0020B02C0120000000000000000094
:1008F0000C0201000400000054EF0020B42C012081
:1009000000000000B5D30308110001000C00000036
:10091000FA010120B82C01200000000035F5020882
:10092000FE010100140000006CFC0020C42C01201A
:100930000000000019D403081900010005000000A0
:10094000DC5B0120405D0120000000007E0B000800
:100950001A0001000E0000004C5B0120485D0120E0
:1009600000000000840B0008F821010006000000D0
:10097000EC590120585D012000000000920B000896
:10098000203201000A000000F8590120605D0120BA
:100990000000000065B005081500100070000000A0
:1009A0004C5401206C5D012000000000000000009C
:1009B0002A00080060000000445C0120DC5D01208A
:0809C0000000000019B0050859
:1009C800000000000000000000000000000000001F
:1009D800000000000000000000000000000000000F
:1009E80000000000000000000000000000000000FF
:1009F80000000000000000000000000001000000EE
:100A080000000000000000000000000000000000DE
:100A180000000000E8036400040A000114001E003E
:100A28009001000000000000030000002003000007
:100A38000000000000000000000000FF00000000AF
:100A480001000000003C0000000000000100000060
:100A5800020200000000000000000000000000008A
:100A6800000000000000000000000000000000007E
:100A7800000000000000000000000000000000006E
:100A8800000000000000000000000000000000005E
:100A98000000010000050000000000000000000048
:100AA80000000000000000002000030100002000FA
:100AB8003200C800D00796001400320028004C0409
:100AC80040060005500014000F00080064000100F3
:100AD800010005000A000000F4019600C4090000A6
:100AE80019000000000000000000000000000000E5
:100AF80000000000000000000000000000000000EE
:100B0800000000000000010000000000AE014A01E2
:100B18005E012C0164000200000001000A019A0134
:100B2800001E0A0000000000000000000001000094
:100B380000050000010203000000000000000000A2
:100B48000000000000000000008007000000000016
:100B580000204030000001000000000000000101FA
:100B68000101FFFFFFFF00000001000005533431C1
:100B78003100000000020000280100007E05EA059F
:100B8800B4053200E803D00700000401F4011400A2
:100B98000000040100000000000000021000000036
:100BA800070000000000000000000000010203042C
:100BB800060708090B010000FFFFFFFF0101000005
:100BC800D1DF0308A5DF0308D9DE030881D40308B1
:100BD8004DDF0308F5DE03087DD40308A0020020DA
:100BE800EDE00308D5D80308DDE0030861D4030865
:100BF80089E0030831E0030851D403087C0200208F
:100C0800D1D9030869D4030865D403085DD403085F
:100C1800DFD9030859D4030855D40308D484060837
:100C280021B103088F6F030805B003080000000016
:100C3800000000009DA70308ADA6030800000000FF
:100C48000000000000000000656E030809D50308D5
:100C5800FDD4030845E1030861E10308B5D403089E
:100C680029E103080FE10308250000004C84060869
:100C7800FF01FF00008002021F00000053544D20B6
:100C88002020202050726F6475742020202020209E
:100C980020202020302E3031008002021F0000006A
:100CA80053544D202020202050726F6475742020EA
:100CB8002020202020202020302E3031381907080D
:100CC800000008020503030000000000401907089F
:100CD8000100080205040300000000003885070829
:100CE8000200FE010110030000000000C013070805
:100CF8000300140200030000000000004819070860
:100D080004001F0202000800000000005019070834
:100D180005001F020201080000000000FFFF00009C
:100D280000000100E0010000FFFFFFFF01FF0100DC
:100D380071DA010800000000F89E0608FFFFFFFFB7
:100D48000800000042570200000001064257020056
:100D58000000010600000000000000004CB9060871
:100D68000000000000000000F8B806080101FF00BC
:100D7800FFFFFFFF2D202D2D202D2D2D2D202D2D7A
:100D88002D2D000000000000000000000000000001
:100D98000000002D202D2D202D2D2D2D202D2D2D29
:100DA800000000000000000000000000000000003B
:100DB80000000000000000000000000088B80608DD
:100DC80001000000FA00000001000000010000001E
:100DD800FC5300200000F40101000000FA53002039
:100DE8000000F40101000000F85300200000F401A5
:100DF80001000000F65300200000F401010000008B
:100E0800F45300200000F40101000000F253002018
:100E18000000F40101000000F05300200000F4017C
:100E280001000000D9E201089DE20108D4A40608E7
:100E3800E053002005320100EE5300206400F40165
:100E480001000000EC5300206400C4090100000008
:100E5800DE530020E803D00701000000DC53002027
:100E6800E803D00701000000DA530020E803D007A8
:100E780001000000D85300201E00B80B010000003C
:100E8800E653002005000F0001000000E853002091
:100E980003000A0001000000D65300201E00F401E0
:100EA80001000000EA5300200200000060A50608C7
:100EB800D45300201400640001000000E253002015
:100EC8003200E80301000000D25300200000C800EF
:100ED80001000000DF52002000C80100DE5200209F
:100EE80000500100DD520020005A0100DB520020B2
:100EF800020000006CA50608B0210708B821070801
:100F0800122201200100C409000000001022012063
:100F18000100C409000000000E2201200100C409DC
:100F2800000000000C2201200100C409000000009C
:100F3800082201200100C409000000000A22012043
:100F48000100C40900000000062201200100C409B4
:100F580000000000042201200100C4090000000074
:100F68007350002000C801007250002000C8010022
:100F7800705000200100C800010000006E500020E1
:100F880032003075320000006C50002005820500E8
:100F98006A50002005002C0105000000695000205F
:100FA800055A05006650002000FF01006850002027
:100FB800020000000005002064500020030000002B
:100FC800CCFB06086550002000FF01006750002098
:100FD800020000000005002063500020030000000C
:100FE800CCFB06082DE20108BDE1010878A506083A
:100FF80010540020EE02CA08010000000E54002020
:1010080000C80100640000000D54002000C8010061
:10101800640000000C5400200200000084A60608AA
:10102800565000200000803E05000000545000206B
:1010380080C1803E050000004E5000200083007DE6
:10104800050000004C50002080C1803E05000000D3
:101058004750002000FF0100405000206400F401C8
:10106800010000003F5000200400000090A6060880
:101078003E50002002000000A4A60608F3500020FD
:101088000D000000B0A60608F05000200064010022
:10109800EE500020320010270A000000EC5000201B
:1010A8000D000000B0A60608EB5000200D0000005F
:1010B800B0A60608EA50002002000000E8A60608CC
:1010C80039DA010800000000F4A6060808880020A4
:1010D8009CFF2C01000000001C600020E0150C178C
:1010E80000000000695D0020020000002CA706082F
:1010F800145400200100FF7F010000001354002059
:101108000200000038A70608F55000200300000080
:1011180048A70608F45000200300000048A7060866
:10112800CC5200200000E80301000000CA52002051
:101138000000E80301000000C85200200000E80396
:1011480001000000C65200200000E8030100000072
:10115800C45200200000E80301000000C252002031
:101168000000E80301000000C15200200014010043
:10117800C05200200300000058A70608DA520020D9
:101188000200000068A70608D85200200000F401F9
:1011980001000000D65200200000F4010100000008
:1011A800D45200200000F40101000000D2520020B7
:1011B8000000F40101000000D05200200000A00F40
:1011C80001000000CE5200200000A00F0100000026
:1011D800BF53002019640100BE5300200200000024
:1011E80074A70608BC530020E803D0070A000000D3
:1011F800BA530020006401000A000000AF53002029
:1012080000640100AE53002000640100B6530020C2
:10121800006401000A000000B553002000640100CA
:101228000A000000B4530020006401000A00000016
:10123800B9530020006401000A000000B8530020E0
:10124800006401000A000000B75300200064010098
:101258000A000000B353002001FF01000A0000004B
:10126800B253002001FF01000A000000B153002022
:1012780001FF01000A000000FE5000200000F401F8
:1012880001000000FC5000200000A00F0100000039
:10129800FA5000200000A00F01000000F8500020C4
:1012A8000000A00F01000000F65000200000A00F71
:1012B800010000007B5D002000C801007A5D00206D
:1012C80000640100795D002000640100785D002061
:1012D80000640100775D002000640100765D002055
:1012E800FF080100755D00200164010029E1010883
:1012F800EDE0010880A706087E5D0020016401007A
:101308007D5D002001000000F0A706087C5D00203C
:1013180004000000F8A70608745D002000640100BE
:10132800725D00201400E80301000000705D0020D9
:10133800E80330750A0000006F5D002000C8010056
:101348006E5D002000C801006D5D002000C801002E
:101358006C5D0020003201006B5D0020006401001C
:101368000A0000008C5D00200000D007010000008A
:10137800875D002000C80100865D002000C80100CC
:10138800855D002000C801008A5D00200000D007AC
:1013980001000000845D002000C80100835D00207A
:1013A80000C80100825D002000C80100885D00209F
:1013B8000000D00701000000815D002000C8010086
:1013C800805D002000C801007F5D002000C801008A
:1013D80000000000C1DE01080CA80608E750002044
:1013E800005A0100E85000203B000000A8A80608A9
:1013F800E650002000C80100E4500020E803D007B0
:101408000100000053544D3332463431310000009E
:101418006250002000030100615000200003010019
:10142800E5DD010899DD010898A9060855DD0108E0
:1014380009DD010824AA060831DE0108390F02086F
:10144800A4AA0608585000200103010041E301083E
:1014580015E30108D0AD06088DDC010841DC010860
:1014680040AE0608D7DE010811360208DCAE0608D1
:10147800D53902080000000084AF06084128020898
:101488002925020820B00608BD1302086DE30108EB
:1014980074B0060839DF010800000000F4B006083F
:1014A80011E00108BDDF010858B10608A9E00108EC
:1014B80065E00108F4B10608E14F020865E101089A
:1014C80080B20608D15300200106010081DF01081F
:1014D8004DDF01087CB30608254F02089D0F02085E
:1014E800ECB30608295002085510020820B5060872
:1014F800D05300200103010085DE010849DE010800
:10150800F4B50608855002080000000064B6060815
:10151800D9DC0108090F0208C8B606080000000057
:101528000000000054B7060895E10108CD10020834
:10153800E0B706083650002088136F170100000036
:101548003850002088136F17000000005622012031
:1015580000000000000000005422012000000000EC
:1015680000000000522201200000000000000000DE
:101578005022012000000000000000004E2201203F
:1015880000000000000000004C22012000000000C4
:1015980000000000A810002000000000000000006B
:1015A800C64F00200300000094B9060834500020FC
:1015B80088136F17010000005288002088136F17E6
:1015C8000000000039DB010800000000A4B906088B
:1015D8006A5D002001000000F8B906085488002060
:1015E8000100000004BA06084A8800200200000032
:1015F8000CBA0608000000000000000018BA06082F
:1016080021DB010800000000B4BA06080000000051
:101618000000000008BB06080000000000000000F1
:1016280078BB06083A50002002000000B0BB06084C
:101638004E880020E0150C170000000038670020D5
:101648008C670020010000000001010100D60101A3
:101658000101FF0001000000A00F0000B80B00000E
:1016680002FFFF01685E0C000200000019A90308D0
:10167800CF6F0308ADA8030800000000B16E03088F
:1016880085B10308F1A703085DA403080000000062
:1016980000000000716E03080D6D0308FF6C03085D
:1016A800D9A20308F5A20308BDA20308A1A2030852
:1016B80087A20308CFA80308AD6F0308F3A70308A0
:1016C80000000000896E03085FA40308C5A703088B
:1016D800BFA3030800000000000000007D6E03089F
:1016E8000403090412010002EF0201408304563288
:1016F8000002010203010000120100020202004080
:10170800830440570002010203010000090220007F
:10171800010104C03209040000020806500507054B
:101728008102400000070501024000000902640030
:10173800030100C032090400000103000000092170
:10174800110100012226000705830308000A080B7F
:101758000102020201000904010001020201000560
:1017680024001001052401000204240202052406B5
:101778000102070582030800FF09040200020A00AB
:101788000000070501024000000705810240000033
:1017980009024300020100C03209040000010202EC
:1017A800010005240010010524010001042402029F
:1017B8000524060001070582030800FF090401004B
:1017C800020A000000070501024000000705810227
:1017D80040000000FF00000000FF000000000000C3
:1017E8000000AA5507010000010000000060024047
:1017F800106002400000000000000000000B000024
:10180800000000000000000000000000006002402E
:10181800286002400100000000000000060C0000E3
:10182800000000000000000000000000006002400E
:10183800406002400200000000000000100D00009F
:1018480000000000000000000000000000600240EE
:10185800586002400300000000000000160E00005F
:1018680000000000000000000000000000600240CE
:10187800706002400400000000000000200F00001B
:1018880000000000000000000000000000600240AE
:1018980088600240050000000000000026100000DB
:1018A800000000000000000000000000006002408E
:1018B800A060024006000000000000003011000097
:1018C800000000000000000000000000006002406E
:1018D800B86002400700000000000000362F00003A
:1018E800000000000000000000000000006402404A
:1018F80010640240000000000000000000380000F2
:101908000000000000000000000000000064024029
:1019180028640240010000000000000006390000B1
:101928000000000000000000000000000064024009
:10193800406402400200000000000000103A00006D
:1019480000000000000000000000000000640240E9
:10195800586402400300000000000000163B00002D
:1019680000000000000000000000000000640240C9
:10197800706402400400000000000000203C0000E9
:1019880000000000000000000000000000640240A9
:1019980088640240050000000000000026440000A2
:1019A8000000000000000000000000000064024089
:1019B800A06402400600000000000000304500005E
:1019C8000000000000000000000000000064024069
:1019D800B86402400700000000000000364600001E
:1019E800000000000000000000000000AA550501EA
:1019F8000000000088C40608FF1FFF1F0501090535
:101A0800A101A1000501093009310932093309355D
:101A18000934094009381581257F75089508810220
:101A2800C0C0000009022200010100E032090400E0
:101A3800000103010200092111010001222600070B
:101A480005830308000A00000000000001020304E7
:101A58000102030406070809BBA90308B9AE030875
:101A680035AA0308E76E030899700308F76E0308A0
:101A7800136F0308C16E0308B36E0308000000006B
:101A880000000000AA550B010000AA55050100003E
:101A9800AA550902000000AA5503009F0100000092
:101AA800C01200001A03000000000000000000003F
:101AB800000000000000000000000000000000001E
:101AC80004030904120100020000004083042057A7
:101AD8000002010203010000FFFFFFFF1F000000DA
:101AE8001C0000001F0000001E0000001F00000076
:101AF8001E0000001F0000001F0000001E00000064
:101B08001F0000001E0000001F0000000068214C9C
:101B1800000000006CD10020080000000000000058
:101B28005CD100200800000020000000D4F5060861
:101B38003C1100200B75030807750308FF740308A0
:101B4800ED720308757D0308056C0308C17C030862
:101B5800F5740308E5740308D5740308D174030801
:101B68000000803F000000000000000000000000AE
:101B7800B15A030800000000000000000000000047
:101B8800FFFFFFFFFF00000001820000FFFFFFFFD3
:101B98000000803F0000803F94EE0020000000001D
:101BA800B8EE00200000000001010000080000005D
:101BB8007D000000FD6C0308FB6C0308F96C03084A
:101BC800F36C0308F16C0308F76C0308F56C030861
:101BD8000000000025980308F598030861780308B9
:101BE800659903084D9A03087D6D0308556D030830
:101BF800396D0308B17A0308A1790308E17A03086B
:101C0800BD9C0308B9B50308399D0308696D03082D
:101C1800416D0308316D030801000000DC19070855
:101C2800588A070800000000C53F0408A086010084
:101C38000400000000000000000000000000000098
:101C4800000000000000000000000000000000008C
:101C5800000000000000000000000000DC19070878
:101C6800B88A070800000000D1230308E803000031
:101C78000400000000000000000000000000000058
:101C8800000000000000000000000000000000004C
:101C98000000000000000000000000004C290708B8
:101CA8000C1907080000000011A604087D000000B8
:101CB8000600000000000000000000000000000016
:101CC800000000000000000000000000000000000C
:101CD80000000000000000000000000014190708C0
:101CE8000000000000000000295D0308E803000070
:101CF80003000000000000000000000000000000D9
:101D080000000000000000000000000000000000CB
:101D1800000000000000000000000000C08A070862
:101D2800000000000000000035260608102700000B
:101D38000300000000000000000000000000000098
:101D4800000000000000000000000000000000008B
:101D5800000000000000000000000000441907080F
:101D68000000000085570208254403085F7600003C
:101D78000500000000000000000000000000000056
:101D8800000000000000000000000000000000004B
:101D9800000000000000000000000000001D07080F
:101DA8000000000000000000C964030810270000BC
:101DB800010000000000000000000000000000001A
:101DC800000000000000000000000000000000000B
:101DD800000000000000000000000000CC8A070896
:101DE800000000000000000091F50208E803000070
:101DF80005000000000000000000000000000000D6
:101E080000000000000000000000000000000000CA
:101E1800000000000000000000000000D88A070849
:101E28000000000000000000F9420408204E0000F5
:101E38000300000000000000000000000000000097
:101E4800000000000000000000000000000000008A
:101E5800000000000000000000000000E88A0708F9
:101E68000000000000000000FD400408204E0000B3
:101E78000300000000000000000000000000000057
:101E8800000000000000000000000000000000004A
:101E9800000000000000000000000000F88A0708A9
:101EA800000000000000000019550308400D030061
:101EB8000300000000000000000000000000000017
:101EC800000000000000000000000000000000000A
:101ED800000000000000000000000000D41A0708FD
:101EE80000000000000000009D41030810270000CA
:101EF80001000000000000000000000000000000D9
:101F080000000000000000000000000000000000C9
:101F18000000000000000000000000002C19070865
:101F2800000000000000000069F10108102700000F
:101F38000300000000000000000000000000000096
:101F48000000000000000000000000000000000089
:101F5800000000000000000000000000088B0708D7
:101F680000000000000000005DC60208A086010015
:101F78000100000000000000000000000000000058
:101F88000000000000000000000000000000000049
:101F980000000000000000000000000018190708F9
:101FA80000000000000000004922030850C30000A0
:101FB8000100000000000000000000000000000018
:101FC8000000000000000000000000000000000009
:101FD80000000000000000000000000020190708B1
:101FE8000000000000000000A5070508A086010009
:101FF80000000000000000000000000000000000D9
:1020080000000000000000000000000000000000C8
:10201800000000000000000000000000B0240708D5
:1020280000000000000000002D1F0308A861000048
:102038000100000000000000000000000000000097
:102048000000000000000000000000000000000088
:10205800000000000000000000000000108B0708CE
:102068000000000000000000E1360208A086010020
:102078000100000000000000000000000000000057
:102088000000000000000000000000000000000048
:10209800000000000000000000000000081D070804
:1020A800000000000000000049F60208A00F000030
:1020B8000100000000000000000000000000000017
:1020C8000000000000000000000000000000000008
:1020D8000000000000000000000000001C8B070842
:1020E80000000000000000005D3102081027000019
:1020F80001000000000000000000000000000000D7
:1021080000000000000000000000000000000000C7
:10211800000000000000000000000000001B07088D
:1021280000000000000000006DF40208A00F00008D
:102138000100000000000000000000000000000096
:102148000000000000000000000000000000000087
:10215800000000000000000000000000DC1A070872
:102168000000000000000000A95205081A41000004
:102178000100000000000000000000000000000056
:102188000000000000000000000000000000000047
:10219800000000000000000000000000681D0708A3
:1021A80000000000000000003D7503081027000033
:1021B8000100000000000000000000000000000016
:1021C8000000000000000000000000000000000007
:1021D800000000000000000000000000648A0708FA
:1021E8000000000000000000154202081A4100002B
:1021F80001000000000000000000000000000000D6
:1022080000000000000000000000000000000000C6
:10221800000000000000000000000000288B0708F4
:102228000000000000000000A17E0308400D03002C
:102238000000000000000000000000000000000096
:102248000000000000000000000000000000000086
:10225800000000000000000000000000308B0708AC
:1022680000000000000000004FF50208400D0300C8
:102278000000000000000000000000000000000056
:102288000000000000000000000000000000000046
:10229800000000000000000000000000388B070864
:1022A80000000000000000007D1A020850C3000072
:1022B8000300000000000000000000000000000013
:1022C8000000000000000000000000000000000006
:1022D800000000000000000000000000448B070818
:1022E80000000000000000005D48040840420F00A4
:1022F80000000000000000000000000000000000D6
:1023080000000000000000000000000000000000C5
:10231800000000000000000000000000508B0708CB
:10232800000000000000000021F6020850C3000071
:102338000000000000000000000000000000000095
:102348000000000000000000000000000000000085
:102358000000000000000000000000000000803FB6
:102368003C5E0120FFFFFFFF0000803F00000000EF
:1023780000000000000000000000803F0000000096
:102388000000000000000000000000000000000045
:102398000000000000000000000000000000000035
:1023A8000000803F00000000000000000000000066
:0823B800010000000000803F5D
:08280000082800080040000850
:108000004FF40063038370474FF4006303837047AA
:10801000012380F8443070474FF4006303837047B6
:1080200090F8213033B1012B03D14FF40063038367
:10803000704770474FF4806303837047F0B4037C4C
:10804000456902681F2B2DD9203B20215468994097
:108050000C4219D010249C40D160D4605168D940A2
:10806000CE0744D4EFF31183502282F312886A6C56
:108070001168C90740D5DBB283F31188037C02681D
:108080001F2B194614D9203B0821506899400842FB
:1080900000D0D1600421506801FA03F3184223D1C3
:1080A000F0BC7047202416689C4026420FD1194628
:1080B000082310688B40184200D093600423106896
:1080C00003FA01F10842EBD09160F0BC7047102137
:1080D0009940946091601168D940CC07C2D50121C4
:1080E00001FA03F39360BDE7D360F0BC7047012150
:1080F00001FA03F3D360B5E7516889B2A1B9D5E9B4
:108100000964A64203D1012285F86820B3E7AF696C
:108110002744D760A4B20FD82E69341BA4B2546090
:10812000A962002185F86810116841F00101DBB2F5
:10813000116083F31188A1E7341BA4B25460AE62CE
:10814000EFE710B5027C01681F2A4FF020030ED91B
:108150004C68203A93401C4208D00C4A40680024E6
:108160001470026822F001020260CB6010BD0C683E
:1081700093401C42FAD0054A4068002414700268FB
:1081800022F0010202608B60F0E700BFF9010120DC
:1081900010B5027C01681F2A4FF020030ED94C68ED
:1081A000203A93401C4208D00B4A406800241470C7
:1081B000026822F001020260CB6010BD0C6893409F
:1081C0001C42FAD0044A406800241470026822F06D
:1081D000010202608B60F0E7074300204368B0F8BB
:1081E000502030B41A83EFF31182502383F31288A6
:1081F0004168456C0B68C46C23EA05032343D2B283
:108200000B6082F31188826803691168446AD0E9BF
:1082100007251A60826A5D61C56A5C60B0F86040DB
:108220009A600022DD60CC62027630BC7047074B5A
:1082300010B51B6818440C46007E11F0DFF820B121
:108240002146BDE8104011F0BFBA10BD50D000204B
:10825000024B03EB4010407F704700BF141D01200C
:10826000704700BFF0B5404D44012A19137F03B990
:10827000F0BD3E4E3E4BDFF804C137781E788C23AC
:1082800003FB00C3B74293F802C082F802C04FF06C
:1082900000029A701CD0720002EB060C354B13F8EA
:1082A0003CC00CF1FF3EBEF1010F08D9BCF1030F39
:1082B0000ED106F1010C0CF0030CBC4508D016449D
:1082C00003EBC6031844417B11B12B1901229A70AC
:1082D00029532919EFF31182902383F312888B78A5
:1082E0002C5B002043EA4403D2B29BB2887082F335
:1082F000118821481A0A007882EA13125A40C8B13C
:1083000088694968D0F8A040D2431B0102F00F02EF
:108310009BB201208840134304F1C0015A0013F4BA
:10832000004F93B202D16268024362600C348C4207
:10833000F4D1F0BD8C694968D4F8A0401B0110311C
:108340009BB202F00F0201208840134304F1C001E8
:108350005A0013F4004F93B202D162680243626084
:108360000C34A142F4D1F0BD141D0120F80101200C
:1083700002FD002004FD0020CD1C012098FD0020FE
:10838000BCEEC00A10EE103A99B26BE7436901687F
:1083900030B41D699C682A68246822F001022A60B2
:1083A000A2899D8922EA0502A281027C1F2A06D9A0
:1083B000203A08204C689040204243D0FEE7082035
:1083C0000C6890402042F9D1202000FA02F28A6025
:1083D000224A1278002A33D01A7E012A37D0D3F8E5
:1083E000F4200132C3F8F420EFF31181502282F31C
:1083F000128858685D6C02689C6C22EA0502224370
:10840000C9B2026081F31188D3E90C0599681A6931
:1084100009689C6B1060D86B55611D6C546090604E
:108420000024B3F8A800D5604C62C86210689C892B
:1084300040F00100012510601D768B8923438B815C
:1084400030BC7047202000FA02F2CA60C0E7D3F8BF
:10845000F8200132C3F8F820F2E700BFCD1C01205C
:108460002DE9F041C40023189B00B749CA5852684F
:10847000958AADB2EFB2FE070B4461D4BE0737D583
:10848000BFF35F8F1D7EEDB2012D00F0BB80AF4EBC
:10849000138BBFF35F8F231801EB83031D7E022D27
:1084A00000F0CE80231801EB83031D7E032D05D140
:1084B0009B7E1BB17378002B40F01A81938896F94C
:1084C00000C043F480639380231801EB83031B7E79
:1084D000013363450AD1B37800257570002B40F055
:1084E0008A80204401EB800000234375BDE8F081C1
:1084F000964E17F0040F96F900C04DD117F04007C3
:1085000000F0B280178A1D6AFFB205F80C705FFA9E
:108510008CF56F1C93F818E07BB2DF1CBE453370FE
:108520009C4600F00981271801EB87073F7EBB427C
:10853000CAD105F1020C4FFA8CFC86F800C0C3E7E3
:108540001588824E25F400652D042D0C15801588A4
:1085500045F4806515809D7E00273770002D3DD045
:108560007578002D37D0231801EB830301251B7E7E
:108570007570022B03D1138843F400631380231812
:1085800001EB83039B7D43F001031382204401EB45
:108590008000037EBDE8F0819F7E75784FF0010E6C
:1085A00086F802E0002F5CD0002D78D1231801EB73
:1085B00083035B7E002B00F0A48013880CF1010C78
:1085C0004FFA8CFC43F4007386F800C013801388C4
:1085D000DF05FCD478E7DB7DFF2BC4D0231801EB4B
:1085E00083039D7D05F0FE051582DB7DFF2BCDD03D
:1085F000FF233370CAE7938823F440731B041B0CDA
:1086000093806EE79B7E514E002B3FF441AF737811
:10861000002B3FF43DAF138823F480631B041B0C35
:108620001380BFF35F8F138B1388B57043F400730F
:108630001380938896F900C043F48063938043E7E6
:108640009B7E002B3FF42EAF7378002B3FF42AAFB4
:10865000138896F900C023F480631B041B0C13805D
:1086600016E0002DA2D0A8E72D067FF52DAFBCF1B6
:10867000FF3F6DD0DD6915F80C5015820CF1010C2F
:108680001D7E4FFA8CF39D429C4633707FF41CAFE5
:10869000938823F480631B041B0C938014E71F7ED4
:1086A000D3F820805FFA8CF5AE44022F4FFA8EFE8D
:1086B00017882DD927F480673F043F0C1780178A4D
:1086C000FFB208F80C701788D3F820C047F4007385
:1086D0001380138ADBB20CF80E30938805F1020C7C
:1086E0004FFA8CFC43F4806386F800C093806EE7F9
:1086F000938896F900C023F480631B041B0C9380BD
:10870000E2E61388012543F48073138075705EE7F9
:1087100047F400771780178AFFB208F80C70178AA1
:10872000D3F8208005F1030C4FFA8CFCFBB286F8DD
:1087300000C008F80E304AE7978827F480673F04A6
:108740003F0C9780EFE600BF94FC0020C01900208A
:10875000DD7D15829D7E37701DB91B7E002B7FF459
:1087600015AF938823F480631B041B0C93800DE7E3
:10877000F0B5876983B0064617B13B68BA885A835B
:108780007069DFF8A8E08389C3244FF47A734FF04F
:10879000060C6D464FF6FF710EF1010E03E0013B32
:1087A0009BB28B4220D002899207F8D5A3B2838175
:1087B0004FF47A7302E0A3B28B4215D00289D2073C
:1087C00003F1FF34F7D5828992B20DB12A700135D9
:1087D000BCF1000F0BD00CF1FF3CFF24BEF1000FE9
:1087E000E1D09EF80040D7E712F046FDB76917B117
:1087F0003B68BA881A839DF805009DF801509DF8E2
:1088000002109DF803409DF804209DF8063041EACF
:10881000052143EA002342EA04220120A6F844107D
:10882000A6F84620A6F8483003B0F0BD687F0608D9
:1088300038B5054640683B4A038823F040031B04D3
:108840001B0C0380038823F038031B0490424FEA7B
:10885000134305D002F58062904201D043F0080333
:1088600003800388AA6843F04003038012B11368B1
:1088700092885A83838940F2E93301E0002B43D088
:108880000289013B12F0020F9BB2F7D0F5238381DE
:1088900040F2E93301E0002B36D00289013B12F0AF
:1088A000010F9BB2F7D08389838940F2E93300E05E
:1088B0000BB30289013B12F0020F9BB2F8D0FF23E9
:1088C000838140F2E93300E0ABB10289013B12F051
:1088D000010F9BB2F8D08489E4B2AB6813B11A6877
:1088E0009B881383712C19D008D9AC2C14D0AF2CD1
:1088F0000ED1092038BD12F0BFFCEEE7122C0FD0CC
:10890000702C07D1052038BD12F0B6FC6868CBE7A3
:10891000732C03D0002038BD072038BD062038BD99
:10892000082038BD003800402DE9F04FA94985B036
:10893000CB7801904068002B00F086810388A64A1E
:1089400023F040031B041B0C0380038823F038032F
:108950001B0490424FEA134300F0748102F58062D9
:1089600090420CBF3022382213430380019B0288BF
:108970009B6842F04002028013B11A689B885383BF
:10898000838940F2E93302E0002B00F090810289F4
:10899000013B12F0020F9BB2F6D06B23838140F2B1
:1089A000E93302E0002B00F082810289013B12F0E2
:1089B000010F9BB2F6D08389838940F2E93302E04C
:1089C000002B00F071810289013B12F0020F9BB273
:1089D000F6D08023838140F2E93302E0002B00F0DF
:1089E00063810289013B12F0010F9BB2F6D08389AB
:1089F000019B9B6813B11A689B8813831523774CDE
:108A0000DFF8E481DFF8E4A1754D764E03939623F9
:108A1000DFF8DCC100934FF0100EDAF80430C3F336
:108A20000803002B40F0E680EFF31183002B40F0A9
:108A3000E1802068AA6823689842FAD133689A4294
:108A4000F7D8D8F800704FF47A7101FB07F39B1A3E
:108A5000B3FBF7F301FB00304FF47A774FF00109D5
:108A6000DAF80430C3F30803002B40F09380EFF3EF
:108A70001183002B40F08E802368A96822689342FE
:108A8000FAD132689142F7D8D8F8002007FB02FBF0
:108A9000ABEB0101B1FBF2F107FB03131B1AB3F5BA
:108AA0007A7FDDD3009B013B0093B6D1019B9B688D
:108AB00013B11A689B885383019B586840F2E933CD
:108AC000828902E0002B00F0DD800289013B12F078
:108AD000020F9BB2F6D0F523838140F2E93302E026
:108AE000002B00F0CF800289013B12F0010F9BB2F6
:108AF000F6D08389838940F2E93302E0002B00F04D
:108B000098800289013B12F0020F9BB2F6D0FF233E
:108B1000838140F2E93302E0002B00F08A80028971
:108B2000013B12F0010F9BB2F6D08389DBB20293B6
:108B3000019B9B6813B11A689B881383029B982B37
:108B400000F0A7807AD9AC2B76D0AF2B40F0A38071
:108B50000920019B20495B681A8822F04002120418
:108B6000120C1A801A8822F0380212048B424FEA43
:108B7000124200F08C8001F580618B420CBF08210D
:108B800010210A431A801A8842F040021A8005B068
:108B9000BDE8F08FEFF311818EF31288D5F808B09D
:108BA0002B68DB0344BFCCF80090D5F808B02368ED
:108BB000DCF80020C9B281F31188D8F80010134402
:108BC00007FB01F2A2EB0B02B2FBF1F207FB03235E
:108BD00064E700BFC01900200038004020150120C4
:108BE00010E000E0941E0120901E012000ED00E046
:108BF0008C1E0120EFF311838EF31288AF682A6870
:108C0000D20303D50122CCF80020AF682068DCF83D
:108C10000090DBB283F31188D8F800104FF47A7219
:108C2000484402FB01F3DB1BB3FBF1F302FB003012
:108C300012E712F021FB7BE707208AE7122B2AD1EB
:108C4000082086E730228FE603881C4A23F0400381
:108C50001B041B0C0380038823F038031B04904281
:108C60004FEA134328D002F5806290420CBF0822DD
:108C70001022134303800388012243F04003038042
:108C8000CA705BE612F0F8FA019B586832E70821D7
:108C900077E70B205DE7039B013B13F0FF03039392
:108CA0007FF4B5AE039872E712F0E6FAA0E612F090
:108CB000E3FA019B58687FE60822DAE700380040B3
:108CC0002DE9F04F83B00346009090F8550000283E
:108CD00040F08487009BAC4A5869038823F0400326
:108CE0001B041B0C0380038823F038031B049042F1
:108CF0004FEA134300F0948702F5806290420CBF64
:108D00003022382213430380009B02889B6942F083
:108D10004002028013B11A689B885383838940F212
:108D2000E93302E0002B00F082870289013B12F058
:108D3000020F9BB2F6D06B23838140F2E93302E04D
:108D4000002B00F074870289013B12F0010F9BB2E7
:108D5000F6D08389838940F2E93302E0002B00F0EA
:108D600090870289013B12F0020F9BB2F6D080235C
:108D7000838140F2E93302E0002B00F08287028910
:108D8000013B12F0010F9BB2F6D08389009B9B69D7
:108D900013B11A689B88138364237C4C7C4EDFF8E4
:108DA000FCE17C48DFF8F8817B4F01934FF010091C
:108DB000DEF80430C3F30803002B40F00086EFF325
:108DC0001183002B40F0FB852568826823689D4253
:108DD000FAD13B689A42F7D8D6F800C04FF47A71BE
:108DE00001FB0CF39B1AB3FBFCF301FB05354FF4BD
:108DF0007A7C4FF0010ADEF80430C3F30803002B3D
:108E000040F0BE85EFF31183002B40F0B985236855
:108E1000816822689342FAD13A689142F7D8326861
:108E20000CFB02FBABEB0101B1FBF2F10CFB0313FA
:108E30005B1BB3F57A7FDED3019B013B0193B7D176
:108E4000009B9B6913B11A689B885383009B5869E8
:108E500040F2E933828902E0002B00F00C8702899E
:108E6000013B12F0020F9BB2F6D06823838140F2DF
:108E7000E93302E0002B00F0FE860289013B12F08C
:108E8000010F9BB2F6D08389838940F2E93302E077
:108E9000002B00F0EC860289013B12F0020F9BB21E
:108EA000F6D00323838140F2E93302E0002B00F087
:108EB000DE860289013B12F0010F9BB2F6D0838956
:108EC000009B9B6913B11A689B8813836423DFF8A6
:108ED000CCE03048DFF8C8802F4F01934FF01009E5
:108EE000DEF80430C3F30803002B40F0EF85EFF306
:108EF0001183002B40F0EA852568826823689D4233
:108F0000FAD13B689A42F7D8D6F800C04FF47A718C
:108F100001FB0CF39B1AB3FBFCF301FB05354FF48B
:108F20007A7C4FF0010ADEF80430C3F30803002B0B
:108F300040F00785EFF31183002B40F00285236892
:108F4000816822689342FAD13A689142F7D8326830
:108F50000CFB02FBABEB0101B1FBF2F10CFB0313C9
:108F60005B1BB3F57A7FDED3019B013B0193B7D145
:108F7000009B9B6913B11A689B885383009B5869B7
:108F800040F2E933828910E00038004020150120CA
:108F9000901E012010E000E0941E012000ED00E092
:108FA0008C1E0120002B00F05C860289013B12F030
:108FB000020F9BB2F6D06B23838140F2E93302E0CB
:108FC000002B00F04E860289013B12F0010F9BB28C
:108FD000F6D08389838940F2E93302E0002B00F068
:108FE0003C860289013B12F0020F9BB2F6D00123AE
:108FF000838140F2E93302E0002B00F02E860289E3
:10900000013B12F0010F9BB2F6D08389009B9B6954
:1090100013B11A689B8813830F23DFF844E28E484C
:10902000DFF840828D4F01934FF01009DEF80430D5
:10903000C3F30803002B40F02785EFF31183002BC7
:1090400040F022852568826823689D42FAD13B68FA
:109050009A42F7D8D6F800C04FF47A7101FB0CF3AE
:109060009B1AB3FBFCF301FB05354FF47A7C4FF000
:10907000010ADEF80430C3F30803002B40F04284F9
:10908000EFF31183002B40F03D8423688168226850
:109090009342FAD13A689142F7D832680CFB02FB4E
:1090A000ABEB0101B1FBF2F10CFB03135B1BB3F55E
:1090B0007A7FDED3019B013B0193B7D1009B9B6973
:1090C00013B11A689B885383009B586940F2E933B7
:1090D000828902E0002B00F0BA850289013B12F080
:1090E000020F9BB2F6D01B23838140F2E93302E0EA
:1090F000002B00F0AC850289013B12F0010F9BB2FE
:10910000F6D08389838940F2E93302E0002B00F036
:109110009A850289013B12F0020F9BB2F6D0182308
:10912000838140F2E93302E0002B00F08C85028954
:10913000013B12F0010F9BB2F6D08389009B9B6923
:1091400013B11A689B8813830F23DFF814E1424898
:10915000DFF81081414F01934FF01009DEF8043021
:10916000C3F30803002B40F06D84EFF31183002B51
:1091700040F068842568826823689D42FAD13B6884
:109180009A42F7D8D6F800C04FF47A7101FB0CF37D
:109190009B1AB3FBFCF301FB05354FF47A7C4FF0CF
:1091A000010ADEF80430C3F30803002B40F08C837F
:1091B000EFF31183002B40F08783236881682268D6
:1091C0009342FAD13A689142F7D832680CFB02FB1D
:1091D000ABEB0101B1FBF2F10CFB03135B1BB3F52D
:1091E0007A7FDED3019B013B0193B7D1009B9B6942
:1091F00013B11A689B885383009B586940F2E93386
:10920000828902E0002B00F018850289013B12F0F0
:10921000020F9BB2F6D01C23838140F2E93302E0B7
:10922000002B00F00A850289013B12F0010F9BB26E
:10923000F6D08389838940F2E93302E0002B00F005
:10924000F2840289013B12F0020F9BB2F6D0182380
:10925000838140F2E9330AE010E000E0941E01202F
:1092600000ED00E08C1E0120002B00F0DC84028960
:10927000013B12F0010F9BB2F6D08389009B9B69E2
:1092800013B11A689B8813830F23DFF870E29948A3
:10929000DFF86C82984F01934FF01009DEF804302C
:1092A000C3F30803002B40F0AC83EFF31183002BD2
:1092B00040F0A7832568826823689D42FAD13B6805
:1092C0009A42F7D8D6F800C04FF47A7101FB0CF33C
:1092D0009B1AB3FBFCF301FB05354FF47A7C4FF08E
:1092E000010ADEF80430C3F30803002B40F0CE82FD
:1092F000EFF31183002B40F0C98223688168226854
:109300009342FAD13A689142F7D832680CFB02FBDB
:10931000ABEB0101B1FBF2F10CFB03135B1BB3F5EB
:109320007A7FDED3019B013B0193B7D1009A92F87B
:109330004F30032B00F24F8492F85250012D0AD087
:10934000022D40F0488492F8573003F0FB03022BC3
:109350000CBF00250725009B9B6913B11A689B88E9
:109360005383009B586940F2E933828902E0002B65
:1093700000F0A9840289013B12F0020F9BB2F6D0E3
:109380001A23838140F2E93302E0002B00F09B8432
:109390000289013B12F0010F9BB2F6D083898389C9
:1093A00040F2E93302E0002B00F089840289013B9E
:1093B00012F0020F9BB2F6D0858140F2E93302E051
:1093C000002B00F07C840289013B12F0010F9BB25C
:1093D000F6D08389009B9B6913B11A689B8813831D
:1093E0000F23DFF818E14348DFF81481424F01935F
:1093F0004FF01009DEF80430C3F30803002B40F0EF
:10940000C983EFF31183002B40F0C4832568826881
:1094100023689D42FAD13B689A42F7D8D6F800C03B
:109420004FF47A7101FB0CF39B1AB3FBFCF301FBC5
:1094300005354FF47A7C4FF0010ADEF80430C3F3AF
:109440000803002B40F00482EFF31183002B40F05F
:10945000FF812368816822689342FAD13A68914279
:10946000F7D832680CFB02FBABEB0101B1FBF2F168
:109470000CFB03135B1BB3F57A7FDED3019B013B2F
:109480000193B7D1009A936992F8545013B11A68B6
:109490009B885383009B586940F2E933828902E03C
:1094A000002B00F007840289013B12F0020F9BB2EF
:1094B000F6D01923838140F2E93302E0002B00F05B
:1094C000F9830289013B12F0010F9BB2F6D0838928
:1094D000838940F2E93302E0002B00F0E88302893F
:1094E000013B12F0020F9BB2F6D0ADB2858140F283
:1094F000E9330AE010E000E0941E012000ED00E0F6
:109500008C1E0120002B00F0D2830289013B12F057
:10951000010F9BB2F6D08389009B9B6913B11A6837
:109520009B8813836423DFF8A8E2A648DFF8A482AF
:10953000A54F01934FF01009DEF80430C3F3080380
:10954000002B40F00683EFF31183002B40F00183E2
:109550002568826823689D42FAD13B689A42F7D811
:10956000D6F800C04FF47A7101FB0CF39B1AB3FBE1
:10957000FCF301FB05354FF47A7C4FF0010ADEF86D
:109580000430C3F30803002B40F04481EFF3118350
:10959000002B40F03F812368816822689342FAD112
:1095A0003A689142F7D832680CFB02FBABEB010141
:1095B000B1FBF2F10CFB03135B1BB3F57A7FDED337
:1095C000019B013B0193B7D1009B9B6913B11A68C2
:1095D0009B885383009B586940F2E933828902E0FB
:1095E000002B00F05F830289013B12F0020F9BB257
:1095F000F6D03723838140F2E93302E0002B00F0FC
:1096000051830289013B12F0010F9BB2F6D083898E
:10961000838940F2E93302E0002B00F040830289A5
:10962000013B12F0020F9BB2F6D01023838140F26F
:10963000E93302E0002B00F032830289013B12F093
:10964000010F9BB2F6D08389009B9B6913B11A6806
:109650009B8813830F23DFF878E15A48DFF8748181
:10966000594F01934FF01009DEF80430C3F308039B
:10967000002B40F04D82EFF31183002B40F0488225
:109680002568826823689D42FAD13B689A42F7D8E0
:10969000D6F800C04FF47A7101FB0CF39B1AB3FBB0
:1096A000FCF301FB05354FF47A7C4FF0010ADEF83C
:1096B0000430C3F30803002B40F08E80EFF31183D6
:1096C000002B40F089802368816822689342FAD198
:1096D0003A689142F7D832680CFB02FBABEB010110
:1096E000B1FBF2F10CFB03135B1BB3F57A7FDED306
:1096F000019B013B0193B7D1009B9B6913B11A6891
:109700009B885383009B586940F2E933828902E0C9
:10971000002B00F0BF820289013B12F0020F9BB2C6
:10972000F6D03823838140F2E93302E0002B00F0C9
:10973000B1820289013B12F0010F9BB2F6D08389FE
:10974000838940F2E93302E0002B00F09E82028917
:10975000013B12F0020F9BB2F6D00123838140F24D
:10976000E93302E0002B00F090820289013B12F005
:10977000010F9BB2F6D08389009B9B6913B11A68D5
:109780009B8813830388114A23F040031B041B0C9E
:109790000380038823F038031B0490424FEA1343ED
:1097A00000F03C8202F5806290420CBF0822102239
:1097B00013430380038843F04003038003B0BDE8F4
:1097C000F08F00BF10E000E0941E01200038004040
:1097D00000ED00E08C1E0120EFF3118189F3128867
:1097E000D0F808B00368DB0344BFC8F800A0D0F885
:1097F00008B02368D8F80020C9B281F31188316815
:1098000013440CFB01F2A2EB0B02B2FBF1F20CFBD6
:10981000032369E7EFF3118189F31288D0F808B0C8
:109820000368DB0344BFC8F800A0D0F808B0236881
:10983000D8F80020C9B281F31188316813440CFBB9
:1098400001F2A2EB0B02B2FBF1F20CFB0323B3E635
:10985000EFF3118189F31288D0F808B00368DB03B5
:1098600044BFC8F800A0D0F808B02368D8F800209A
:10987000C9B281F31188316813440CFB01F2A2EBE9
:109880000B02B2FBF1F20CFB0323F3E5EFF31181C2
:1098900089F31288D0F808B00368DB0344BFC8F826
:1098A00000A0D0F808B02368D8F80020C9B281F32E
:1098B0001188316813440CFB01F2A2EB0B02B2FBDE
:1098C000F1F20CFB032329E5EFF3118189F31288F0
:1098D000D0F808B00368DB0344BFC8F800A0D0F894
:1098E00008B02368D8F80020C9B281F31188316824
:1098F00013440CFB01F2A2EB0B02B2FBF1F20CFBE6
:1099000003236BE4EFF3118189F31288D0F808B0D8
:109910000368DB0344BFC8F800A0D0F808B0236890
:10992000D8F80020C9B281F31188316813440CFBC8
:1099300001F2A2EB0B02B2FBF1F20CFB0323FFF7E7
:10994000B5BBEFF3118189F31288D0F808B0036832
:10995000DB0344BFC8F800A0D0F808B02368D8F8EB
:109960000020C9B281F31188316813440CFB01F265
:10997000A2EB0B02B2FBF1F20CFB0323FFF7F0BAF0
:10998000EFF3118189F31288D0F808B00368DB0384
:1099900044BFC8F800A0D0F808B02368D8F8002069
:1099A000C9B281F31188316813440CFB01F2A2EBB8
:1099B0000B02B2FBF1F20CFB0323FFF739BAEFF312
:1099C000118389F31288D0F808C00268D20304D545
:1099D0000122C8F80020D0F808C02568D8F800A0F7
:1099E000DBB283F3118831684FF47A72554402FB7D
:1099F00001F3A3EB0C03B3FBF1F302FB0535FFF717
:109A0000F6B9EFF3118389F31288D0F808C0026821
:109A1000D20304D50122C8F80020D0F808C0256878
:109A2000D8F800A0DBB283F3118831684FF47A7262
:109A3000554402FB01F3A3EB0C03B3FBF1F302FB70
:109A400005354AE4EFF3118389F31288D0F808C092
:109A50000268D20304D50122C8F80020D0F808C05B
:109A60002568D8F800A0DBB283F3118831684FF481
:109A70007A72554402FB01F3A3EB0C03B3FBF1F341
:109A800002FB0535FFF789BBEFF3118389F31288D9
:109A9000D0F808C00268D20304D50122C8F800201B
:109AA000D0F808C02568D8F800A0DBB283F311888D
:109AB00031684FF47A72554402FB01F3A3EB0C03B7
:109AC000B3FBF1F302FB0535FFF7CFBAEFF31183D8
:109AD00089F31288D0F808C00268D20304D50122A5
:109AE000C8F80020D0F808C02568D8F800A0DBB27C
:109AF00083F3118831684FF47A72554402FB01F305
:109B0000A3EB0C03B3FBF1F302FB0535FFF707BA38
:109B1000EFF3118389F31288D0F808C00268D203EA
:109B200004D50122C8F80020D0F808C02568D8F86C
:109B300000A0DBB283F3118831684FF47A72554488
:109B400002FB01F3A3EB0C03B3FBF1F302FB0535BE
:109B5000A9E5EFF3118389F31288D0F808C00268F1
:109B6000D20304D50122C8F80020D0F808C0256827
:109B7000D8F800A0DBB283F3118831684FF47A7211
:109B8000554402FB01F3A3EB0C03B3FBF1F302FB1F
:109B90000535F0E4EFF3118389F31288D0F808C09B
:109BA0000268D20304D50122C8F80020D0F808C00A
:109BB0002568D8F800A0DBB283F3118831684FF430
:109BC0007A72554402FB01F3A3EB0C03B3FBF1F3F0
:109BD00002FB05352DE4019DFFF7BDBB1E460FF0CE
:109BE0000DFC06F10C010446002872D000223C4B0B
:109BF000C27126258571F3604CF04CFCA388B3FA42
:109C000083F3C3F11F03012212FA03F33FF462A8A6
:109C100034490A6813430B60FFF75CB80822C7E5B4
:109C20003022FFF76FB811F027FBFFF727BB11F0C9
:109C300023FB009B5869FFF78DB811F01DFB009BBB
:109C40005869FFF7F7BA11F017FBFFF777BA11F071
:109C500013FB009B5869FFF755BA11F00DFBFFF796
:109C6000D5B911F009FB009B5869FFF7B3B911F0A2
:109C700003FBFFF725B911F0FFFA009B5869FFF7C6
:109C800003B911F0F9FAFFF781B811F0F5FA009B6A
:109C9000586972E511F0F0FA009B586950E511F02F
:109CA000EBFAD1E411F0E8FA009B5869B0E411F046
:109CB000E3FA31E411F0E0FA009B586908E411F08E
:109CC000DBFAFFF787BB11F0D7FA009B5869FFF763
:109CD00066BB034BF36002464CF0DCFBFEF7FABFB9
:109CE00011800008003C014008B5012031F03CFB28
:109CF000174A936803F00C03042B1ED0082B18D1CD
:109D000051685368490203F03F0319D4526811485F
:109D1000B0FBF3F0C2F3881300FB03F00C4B0E4AC8
:109D20005B68C3F3014301335B00B0FBF3F01060E9
:109D300008BD094B074A1A6008BD074B186008BDEB
:109D4000B0FBF3F05368C3F3881300FB03F0E5E7BF
:109D5000003802400024F4006CF300202DE9F04F9D
:109D6000454B1D7885B025B90125284605B0BDE8CD
:109D7000F08F424B1C680EF0DBFF414B009093F8D4
:109D80002C30002B00F0F3833E4A3F4BDFF820A13C
:109D9000DFF82091A2FB04246409A3FB0423DB0861
:109DA00003EB8303A4EB4303DAB29B00019202931B
:109DB00054460025354B009A5B68D31A03D4A26D34
:109DC0009342C0F2A5838C2303FB05A3A26893F8FA
:109DD00054301768D4F8806003F0FF0E002B40F079
:109DE00069823168002321F00101316033607360C2
:109DF000B360F3603361264B21219E42716100F014
:109E00001283244B9E4200F01283234B9E4200F0AB
:109E10001383224B9E4200F06683214B9E4200F04A
:109E20006783204B9E4200F06F831F4B9E4200F0E1
:109E300074831E4B9E4200F087833046039231F0BC
:109E4000C5FA039A8C2303FB05A3002183F8541061
:109E500053790C2B00F21C82DFE813F0DF011A02A9
:109E60001A021A02A2011A021A021A025C011A024A
:109E70001A021A022E0000BFCD1C0120201501205D
:109E800064FD00201F85EB51CDCCCCCCC019002047
:109E9000106002402860024040600240586002406A
:109EA0007060024088600240A0600240B8600240DA
:109EB00098FD0020D8D60020BB8B23F400631B0440
:109EC0001B0CBB833B8CB4F86C20B4F86280B4F8F4
:109ED00060E0DFF8C8C223F480531B041B0C3B84F2
:109EE000398CB888BB8B21F4005123F4E643090474
:109EF0001B04090C42EA08021B0C41EA023243EA45
:109F00000E23674592B280B29BB200F0B4829F49A3
:109F10008F4200F0B082A16EB880BB8339643A846E
:109F2000BB8B23F400631B041B0C43F40063BB8353
:109F3000D4E90B12A369606BA76B43F0400319438C
:109F40000A431043D4E90F230743174340226262B8
:109F50003B43E76C3068226D8D493B43014013431E
:109F60000B433360D4E911327169A06A21F0070113
:109F700013430B43D4E9071273617060B160F26060
:109F8000336843F010033360824B93F82C30013573
:109F90009D4209F15C0904F18C04FFF60BAF7E4988
:109FA00000224A60002B3FF4DFAEDAF808109AF87E
:109FB00010400A684879A40754BF01210421814058
:109FC000108C89B220EA01001084108C012B41EA28
:109FD000000111843FF4C8AEDAF894109AF89C009E
:109FE0000A684C79810754BF01210421108CA140DB
:109FF00089B220EA01001084108C022B41EA000192
:10A0000011843FF4B1AEDAF820119AF828010A68F9
:10A010004C79870754BF01210421108CA14089B2DB
:10A0200020EA01001084108C032B41EA0001118406
:10A030003FF49AAEDAF8AC119AF8B4410A6848795C
:10A04000A60754BF012104218140108C89B220EA67
:10A0500001001084108C042B41EA000111843FF4AC
:10A0600083AEDAF838129AF840420A684879A507B0
:10A0700054BF012104218140108C89B220EA0100E3
:10A080001084108C052B41EA000111843FF46CAE62
:10A09000DAF8C4129AF8CC420A684879A40754BF87
:10A0A000012104218140108C89B220EA0100108432
:10A0B000108C062B41EA000111843FF455AEDAF80A
:10A0C00050139AF858030A684C79810754BF01214C
:10A0D0000421108CA14089B220EA01001084108C68
:10A0E000082B41EA000111847FF43EAEDAF8DC234C
:10A0F0009AF8E4031368517982074CBF04220122C5
:10A100008A40198C92B221EA02011984198C0A43FF
:10A110001A8429E6BB8B23F008031B041B0CBB83AA
:10A120003B8CB4F86C00B4F86280B4F860E0DFF8FF
:10A130006CC023F480731B041B0C3B843B8CB988DC
:10A14000BA8B23F400731B0422F073021B0C40EA49
:10A150000800120443EA0023120C67459BB289B23F
:10A1600042EA0E0200F06D810848874200F06981E2
:10A17000A06EB980BA83F8633B84BB8B23F00803DD
:10A180001B041B0C43F00803BB83D1E60004014011
:10A190003F801CF064FD0020C01900200000014039
:10A1A0003B8BB4F86C20B4F86280B4F860E0DFF860
:10A1B00094C323F400631B041B0C3B833B8C23F0F0
:10A1C00010031B041B0C3B84398CB8883B8B21F09B
:10A1D000200123F4E64309041B04090C42EA0802A7
:10A1E0001B0C41EA021143EA0E23674589B280B293
:10A1F0009BB200F04881CB4A974200F04481A26EA6
:10A20000B8803B83BA6339843B8B23F400631B041F
:10A210001B0C43F400633B838AE63B8B23F008036B
:10A220001B041B0C3B833B8CB4F86C20B4F862809D
:10A23000B4F860E0DFF80CC323F001031B041B0C2F
:10A240003B843B8CB888398B23F0020321F07301E7
:10A250001B0409041B0C42EA0802090C674543EA87
:10A26000020380B241EA0E0100F02781AD4A974215
:10A2700000F02381A26EB88039837A633B843B8BE4
:10A2800023F008031B041B0C43F008033B834FE639
:10A29000082B3FF445AF0C2B3FF414AE002BC2D07B
:10A2A000082B3FF46AAF0C2B3FF43AAE002B7FF43F
:10A2B0003FAEE4E77068A189BB8980B2C0F11600A7
:10A2C00023EA01030728BB817FF68BAD9649D4F8BA
:10A2D00088208B68039201338B6016461368012136
:10A2E0000022B446884616465CF8047F8842A7EBF5
:10A2F000030B40F22E81142E11DC1BF1080348BF22
:10A300000BF117031B111E4403F1FF3B01319A406F
:10A3100008FA0BFB88424BEA02023B46E4D2152EB8
:10A3200040F0EA808148C2F38421C2F3441300EB79
:10A33000810100EB830302F01F0689689F6800EB30
:10A340008606C2F3C43200EB8202B3689268090247
:10A3500041EA07171F4347EA023787EA172383EAD0
:10A36000131303F00F030F2B40F0C6803B0940F698
:10A37000FF72934200F0F880C3F308037F0B13FAD7
:10A3800007F700F0B9807B0803F5122303F5F863A3
:10A390004FF6FF71B3FBF7F7BAB28A4200F0AC8018
:10A3A000614B03EB8501032D4FF001038A818B7311
:10A3B00006DC5F4B1B782D2B02D15E4B23F815700A
:10A3C00099F85830019AD9F800009342029B09EBA2
:10A3D000030111D08B68D9F80420C31AC9F80030E2
:10A3E0000B6BD31A0022C9F804308A600A63019B00
:10A3F000D9F8000089F858300130C9F800008B689E
:10A40000A268D4F88060176801338B60BEF1000F3A
:10A410007FF4E7ACD9F804300133C9F804300B6B92
:10A4200001330B63DDE43D2143F8081C0AE54FF4DA
:10A43000746143F8201C05E54FF4741143F8381C8F
:10A4400000E5B4F86E00B4F870E0B4F872C023F41C
:10A45000006343EA00234FF6FF301840B4F864303D
:10A4600021F440514EEA0C0C40EA032341EA0C115E
:10A470009BB289B27CE6B4F8701020F4804040EAC8
:10A48000811080B247E5B4F86E20B4F870E0B4F8FB
:10A4900072C021F0800141EA02114FF6BF720A40FA
:10A4A000B4F8641020F440604EEA0C0C42EA01114A
:10A4B00040EA8C0089B280B2A1E6B4F86EE0B4F84C
:10A4C0007020B4F872C023F0080343EA0E03B4F816
:10A4D00064E020F4407023F0040342EA0C0243EAF3
:10A4E0000E031043C6E64FF0746143F8501CA9E414
:10A4F000114943F8641CA5E40B4A536801335360C7
:10A500005DB34FF0000E5BE70C4943F87C1C99E407
:10A510000025284605B0BDE8F08F094943F8941C92
:10A5200090E400BF00040140A0E70020687F060817
:10A5300059EF00205CEF00203D000020400F00207C
:10A5400000003D20000001404FF03D5143F8AC1C9D
:10A5500078E4C6F115031526D6E603990648582275
:10A560005CF08AF9AE462BE700273A4618E7034A23
:10A570005360FFF7FABB00BFCCE70020C0190020F2
:10A580002DE9F84F037C02681F2B0BD9A3F120059E
:10A5900020215468A940214214BF0121002151B952
:10A5A000BDE8F88F202114689940214214BF012191
:10A5B00000210029F4D05149514D4968D0F8149038
:10A5C000DFF84C8129608C2101FB09814D4E8C689C
:10A5D00036782768B6B9D1F88060B1F80CC0346815
:10A5E00024F001043460B98921EA0C01B98146499B
:10A5F0000978B1B91F2B79D8202101FA03F39360B0
:10A60000BDE8F88F6469216821F001012160B989F2
:10A6100021F480710904090CB9813B4909780029AA
:10A62000E8D04FF08C0A0AFB098A0446DAF8806009
:10A63000DFF8E0B0304630F057FF01238AF854309D
:10A64000DBF804301BB90EF073FBCBF804003A883A
:10A650008C2303FB09F909F1740142F080034FF0E8
:10A66000FF323B804144FA62384630F095FD08EBFA
:10A670000903D3E90B709A693168D3F828C03A43CB
:10A680000243586BDF6C0243986B0243D86B024362
:10A69000186C02433A431D481F6D08403A43024379
:10A6A000002159623260D3E911277069D3F8801014
:10A6B00020F007003A430243D3E907707261162283
:10A6C000C6F804C0B760F0604A600A6898689F895D
:10A6D00000680A4E42F001020A6083893B4383818D
:10A6E00073686B60237C22681F2B85D9A3F120013E
:10A6F00020238B40D360BDE8F88F00BF001000E03E
:10A7000098380020D81C0120CD1C01203F801CF06F
:10A7100098FD0020C019002070B5B14AB14B1278E5
:10A720001B789A4240F06481AF4B1A7A002A00F0FD
:10A73000C980AE490978002940F0C580D8681D8AD3
:10A7400004881E8C24F080042404240C0480C56238
:10A75000058845F08005058041628489012A44EA24
:10A7600006048481198400F0AD80586A1D8D048828
:10A770001E8F24F080042404240C0480C562058804
:10A7800045F08005058041628489022A44EA060476
:10A790008481198700F09680D86BB3F84050048804
:10A7A000B3F8506024F080042404240C0480C562B3
:10A7B000058845F08005058041628489032A44EAC2
:10A7C00006048481A3F850107CD0586DB3F858501B
:10A7D0000488B3F8686024F080042404240C048006
:10A7E000C562058845F08005058041628489042A98
:10A7F00044EA06048481A3F8681063D0D86EB3F8E5
:10A8000070500488B3F8806024F080042404240C81
:10A810000480C562058845F0800505804162848911
:10A82000052A44EA06048481A3F880104AD0D3F8AC
:10A830008400B3F888500488B3F8986024F080044A
:10A840002404240C0480C562058845F08005058039
:10A8500041628489062A44EA06048481A3F8981098
:10A8600030D0D3F89C00B3F8A0500488B3F8B0609F
:10A8700024F080042404240C0480C562058845F07B
:10A880008005058041628489072A44EA06048481A0
:10A89000A3F8B01016D0D3F8B420B3F8B84010889D
:10A8A000B3F8C85020F080000004000C1080D4627F
:10A8B000148844F080041480516290892843908168
:10A8C000A3F8C81070BD5C69198B61602568D868F1
:10A8D00045F0010540F20D312560A0F8481084894B
:10A8E000012A44F480748481ECD0DC6A1D8E586A9D
:10A8F0006560256845F001052560A0F84810848949
:10A90000022A44F480748481DCD05C6CB3F8485033
:10A91000D86B6560256845F001052560A0F84810F2
:10A920008489032A44F480748481CBD0DC6DB3F82D
:10A930006050586D6560256845F001052560A0F8F8
:10A9400048108489042A44F480748481BAD05C6FEE
:10A95000B3F87850D86E6560256845F0010525602C
:10A96000A0F848108489052A44F480748481A9D011
:10A97000D3F88C40B3F89050D3F884006560256814
:10A9800045F001052560A0F848108489062A44F4A2
:10A990008074848196D0D3F8A440B3F8A850D3F83B
:10A9A0009C006560256845F001052560A0F8481009
:10A9B0008489072A44F48074848183D0D3F8BC202E
:10A9C000B3F8C000D3F8B4305060106840F0010014
:10A9D0001060A3F848109A8942F480729A8170BD81
:10A9E000F801012002FD0020C0190020D81C012020
:10A9F0004BF0F4FF00287FF497AE70BD2DE9F843CB
:10AA0000214A224B12781B789A4236D1204E336865
:10AA1000002B15DDDFF884801E4F00244546A1463B
:10AA20003B783BB12B7E012B20D02A69136843F081
:10AA30000103136033680134A34205F58075EFDC30
:10AA40000EF076F9144BD3F8D040C3F8CC00002CAC
:10AA50000ADDD43303EBC404196898888A89083363
:10AA60000243A3428A81F7D1BDE8F88308EB0420B2
:10AA700085F8F090FDF7B2FBD7E74BF0AFFF002869
:10AA8000C4D1BDE8F88300BFF801012002FD002019
:10AA9000E4380020CD1C0120C0190020E838002037
:10AAA00070B50D4E3368002B14DD0C4C002504E00E
:10AAB0003368AB4204F120040CDD237F0135002B09
:10AAC000F6D0217DE0680EF097F83368AB4204F1D0
:10AAD0002004F2DC012070BDD01C0120141D0120D7
:10AAE0002DE9F04FB24B1B7885B0EBB9B14E33680E
:10AAF000002B15DD0024B04821460569D0F8A030B0
:10AB00002A6822F001022A6003F1C00259600C3366
:10AB10009A42FBD133680134A34200F58070ECDC2B
:10AB2000012005B0BDE8F08FA44B1C680EF000F9C1
:10AB3000A34AD2F8CC30D2F8F420C31A1432B3EBC3
:10AB4000420FC0F231819F4A9F4B12789F49039276
:10AB50009F4D09680191A3FB04235B09A5FB032515
:10AB60009C499D4E9D4FED08D1E9011B05EB8505E4
:10AB7000A3EB45054FF0000CEBB2E646029106EB65
:10AB800085054FF00109BC469846019B734540F38B
:10AB90000581DCF81810DCF804300A69D1F8EC0003
:10ABA0005268D1F8E84092B2801A9B00640100F12B
:10ABB000806203F10853E118393A01EB82129142A5
:10ABC00080F0E080E358002B00F06E810B6C002BCE
:10ABD00000F06D81D1F88030002B00F06B81D1F84E
:10ABE000C04001F58073CCB1044608469A4240F259
:10ABF000C9801968002900F04981196C002900F00A
:10AC00004B81D3F88010002900F04A8103F580734E
:10AC100053F8401C0029E9D1014620469A4240F2EF
:10AC2000B180591AA0EBA111452928BF4521002761
:10AC300003EB81113C461A46994216D910461A6810
:10AC4000002A40F0D1801A6C002A40F0F580D3F839
:10AC50008020002A40F0F38003F5807353F8402CE5
:10AC6000002A40F0EF809942E9D8112F40F28A8003
:10AC7000C7F11507002FC0F2FF8000F023817B1E73
:10AC800009FA03F304FA07F71F43C7F31302544CFE
:10AC9000D00B07F01F07C2F3441104EB870304EB4A
:10ACA000800004EB8101C2F38422D3F88830D0F80D
:10ACB0008800D1F8881004EB820243EA0033D2F80E
:10ACC000882043EA011343EA022383EA132282EA3B
:10ACD000121202F00F020F2A40F0CE80B3F5803F2F
:10ACE00080F0CA801A0940F6FF718A4200F0E580C0
:10ACF000C2F308025B0B12FA03F300F0BD8059089F
:10AD000001F512214FF6FE7201F5F861B1FBF3F186
:10AD1000914237D04FF6FF7399420BF1010B00F0CF
:10AD2000AD808AB22B4B03EB8E03BEF1030F9A81E9
:10AD300083F80E9005DC039B2D2B02D1294B23F8C1
:10AD40001E1096F85830306843450CD0AB687268D6
:10AD5000C31A33602B6BD31A73600023AB602B6371
:10AD6000306886F8588001303060AB680133AB60E2
:10AD70004FF6FF73994205D17368013373602B6BF3
:10AD800001332B630EF1010EBEF1080F06F15C06D4
:10AD900005F15C050CF1200C7FF4F7AE0D4B029A27
:10ADA000C3F808B05A60A1E6002005B0BDE8F08FF6
:10ADB000CD1C0120E4380020E838002020150120B7
:10ADC000C019002059EF00201F85EB51D01C012035
:10ADD000CDCCCCCCA0E70020D8D60020141D01207B
:10ADE000687F06085CEF00200246403399427FF6F8
:10ADF0003CAF9A1A92114748013280FB02A0A0EBA7
:10AE0000E272012AB8BF0122501E09FA00F09440F4
:10AE10000443174418460268B2B3026CD2B3D0F8A8
:10AE200080208AB100F5807050F8402C6AB18142D0
:10AE3000F1D81A460346FFE602468033D6E70246BB
:10AE4000C033D3E70246D1E7C0308142F1D9C31AFB
:10AE50009B11304A013382FB03A2A2EBE373012B67
:10AE6000B8BF01235A1E9C4009FA02F21F44034650
:10AE700014431A460346DFE60BF1010B029B013334
:10AE800002934FF6FF715CE74030DEE70146403346
:10AE90002046C3E68030D8E7014680332046BDE631
:10AEA0000146C0332046B9E601F14003B6E601F1A0
:10AEB0008003B3E601F1C003B0E600220BF1010B01
:10AEC00011462FE7C4F3130304F01F00124CD90BF3
:10AED000C3F3441204EB800004EB810104EB820213
:10AEE000C3F38423D0F88800D1F88810D2F88820E2
:10AEF00004EB830340EA0131D3F8880041EA0213EE
:10AF000043EA002383EA132282EA121202F00F02BC
:10AF1000E1E600BF56555555687F060808B5838998
:10AF200040F2E93300E0A3B10289013B12F0020FC5
:10AF30009BB2F8D089B2818140F2E93300E043B19D
:10AF40000289013B12F0010F9BB2F8D08089C0B298
:10AF500008BD10F091F9C0B208BD00BF2DE9F04F57
:10AF600087B0A94A02904068038823F040031B047D
:10AF70001B0C0380038823F038031B0490424FEA24
:10AF8000134300F03F8102F5806290420CBF3022F3
:10AF9000382213430380029B02889B6842F04002E0
:10AFA000028013B11A689B885383838940F2E93386
:10AFB00002E0002B00F075810289013B12F0020FC4
:10AFC0009BB2F6D06B23838140F2E93302E0002B81
:10AFD00000F067810289013B12F0010F9BB2F6D0AD
:10AFE0008389838940F2E93302E0002B00F0568127
:10AFF0000289013B12F0020F9BB2F6D080238381BD
:10B0000040F2E93302E0002B00F048810289013B65
:10B0100012F0010F9BB2F6D08389029B9B6813B19B
:10B020001A689B8813830623784CDFF8EC81DFF8DD
:10B03000ECA1774D774E04939623DFF8E4C101939A
:10B040004FF0100EDAF80430C3F30803002B40F081
:10B05000B280EFF31183002B40F0AD802068AA6826
:10B0600023689842FAD133689A42F7D8D8F800702A
:10B070004FF47A7101FB07F39B1AB3FBF7F301FB63
:10B0800000304FF47A774FF00109DAF80430C3F357
:10B090000803002B70D1EFF31183002B6CD12368D0
:10B0A000A96822689342FAD132689142F7D8D8F859
:10B0B000002007FB02FBABEB0101B1FBF2F107FB48
:10B0C00003131B1AB3F57A7FDFD3019B013B019376
:10B0D000B8D1029B9B6813B11A689B885383029B6B
:10B0E000586840F2E933828902E0002B00F0858045
:10B0F0000289013B12F0020F9BB2F6D0F523838147
:10B1000040F2E93301E0002B77D00289013B12F0D5
:10B11000010F9BB2F7D08389838940F2E93301E0C4
:10B12000002B67D00289013B12F0020F9BB2F7D0CF
:10B13000FF23838140F2E93301E0002B5AD00289DA
:10B14000013B12F0010F9BB2F7D08389DBB203936E
:10B15000029B9A6812B1136891881983039B682B2C
:10B1600060D0049B013B13F0FF0304937FF464AFB2
:10B17000184607B0BDE8F08FEFF311818EF3128807
:10B18000D5F808B02B68DB0344BFCCF80090D5F8A5
:10B1900008B02368DCF80020C9B281F31188D8F820
:10B1A0000010134407FB01F2A2EB0B02B2FBF1F219
:10B1B00007FB032385E7EFF311838EF31288AF6853
:10B1C0002A68D20303D50122CCF80020AF6820689A
:10B1D000DCF80090DBB283F31188D8F800104FF44C
:10B1E0007A72484402FB01F3DB1BB3FBF1F302FB71
:10B1F000003046E710F040F8AAE710F03DF8029B57
:10B20000586889E73022C4E6003800402015012044
:10B2100010E000E0941E0120901E012000ED00E0EF
:10B220008C1E012012B1136892885A83029C8C21D3
:10B230006068FFF773FE6068838940F2E933028932
:10B24000013B12F0020F9BB215D1002BF7D110F089
:10B2500013F8029B9B6813B11A689B881383059BA4
:10B26000142B04D3182B17D9543B062B14D90020C8
:10B2700007B0BDE8F08FFF23838140F2E93301E09E
:10B28000002BE4D00289013B12F0010F9BB2F7D0F2
:10B290008389DBB20593DCE703206AE70FF0ECFF5C
:10B2A000BBE60FF0E9FF029B58689AE6F8B584897F
:10B2B0004FF6FF764FF47A7433B319B30F78013138
:10B2C00001E0B44218D00589013CAD07A4B2F8D51D
:10B2D000BCB284814FF47A7402E0BCB2B4420BD0A9
:10B2E0000589ED0704F1FF37F7D58589ADB20AB1BD
:10B2F00015700132013BDFE70FF0BEFF003018BFD1
:10B300000120F8BDFF27DEE70120F8BD0388174ABA
:10B3100023F040031B041B0C0380038823F0380335
:10B320001B0490424FEA13431DD002F58062904205
:10B3300019D0B1F5807FA8BF4FF480710229B8BF42
:10B340000221002991FAA1F1B1FA81F108BF4FF071
:10B35000FF31013943EAC10189B20180038843F01A
:10B360004003038070474908E3E700BF003800400E
:10B370002DE9F043A44CA54BA548A5680778D4E96E
:10B380000021960F1E70C2F3836CC2F30166080E93
:10B3900083F801C000019E70C2F3074CC2F3072678
:10B3A000D2B283F803C01E715A71D880DE88C1F30F
:10B3B0000350C1F307223043C1F30346D8804FEA5C
:10B3C000D21C1E72C2F34010C2F3801683F809C06B
:10B3D000012F9E72C2F3001CD8724FF0000083F858
:10B3E0000CC0587340F2C980022F40F0C4800A0498
:10B3F00002F47C121A611A69290E42EA01221A61CA
:10B400001969C5F307420A431A611E69002716F13C
:10B41000010847F100094FEA89214FEA882641EAED
:10B420009851C5F307224FF40077C3E912611F65F5
:10B43000C2F38016520002F07E015E76997693F890
:10B440001AC0E2682669C5F3C0114CEA010C970DD9
:10B4500005F07F0183F81AC007F00C05D9764FEA92
:10B46000D27CC2F34177C2F3826183F81CC05F775C
:10B470009977DD77D97F6569C2F381573943D977E9
:10B48000C2F3405CC2F30047002183F820C083F878
:10B49000211083F82270C2F3C03783F82370C2F3FF
:10B4A000803783F82470C2F3403783F82570C2F3E5
:10B4B000003783F82670C2F3812783F82770C6F31C
:10B4C0000741C2F3012783F828704FEA166C012761
:10B4D0000902C2F3460283F8292083F82A7083F810
:10B4E0002CC0D985D98DC6F307220A433606DA85E2
:10B4F0001E631A6B290E42EA01421A631E6BD4E9DD
:10B5000006212C0A04F47F4434431C631C6BC5F3EE
:10B5100007262643140C1E63EDB2160E240683F88C
:10B52000345083F835609C639D6B140204F47F04EF
:10B530002C439C639C6B120292B222439A639A6BD7
:10B5400042EA11629A6393F83C40C1F303550A0A38
:10B550002C4302F4706283F83C40DA87DA8FC1F33F
:10B5600007241443C1F34602DC8783F8402083F8A4
:10B570004170BDE8F0832A205CE7920202F4406249
:10B580001A611A69890001F47F71114319611969FF
:10B59000EA0B41EA957EC5F30267C5F3425602F015
:10B5A0000602C5F38241C5F3C26CC3F810E083F80C
:10B5B00014C05F759E75D9751A761A7EC5F3C031B1
:10B5C0000A431A761A691E7E1F7A0121023601FA91
:10B5D00006F6B9404FEAE6790132A6FB016701FBA6
:10B5E0000977A6FB028902FB07994FEA582646EA2B
:10B5F000C9564FEA5927C5F30722C3E912671965EF
:10B60000C2F3801616E700BF0CEF00201086002062
:10B61000600D01204B1C30B44FF40033474C0CBF7D
:10B620008025452500E04BB3626B2A4203F1FF33CE
:10B63000F9D000292CDD626B520726D4032927D0CC
:10B640003E4A536B13F0010327D1022922D014691B
:10B65000E4B2844224D10129526923D0062919D1A8
:10B6600012F4604F04BF364BC3F8F820900445D461
:10B67000510415D413040DD50F2007E0002904DD73
:10B68000636B5C0701D40329DAD1032030BC704717
:10B69000002BFAD0002030BC7047012030BC70472E
:10B6A0001020F3E7274B1340002BF3D0002A29DBAF
:10B6B000530025D4950029D4D40025D4100127D4D3
:10B6C00051012DD4D3012FD41502D5D45402E7D47F
:10B6D000900227D4D1022FD413030FD4550329D4B9
:10B6E000940325D4D00321D4110415D4530411D4C8
:10B6F000950413D41407CDD51A20C7E71320C5E746
:10B700000920C3E71C20C1E70B20BFE70A20BDE7E3
